{
  "address": "0x40D47b711590Dbac36e84376ba16e2c9865e4DCf",
  "abi": [
    {
      "inputs": [
        {
          "internalType": "address",
          "name": "_signer",
          "type": "address"
        },
        {
          "internalType": "address",
          "name": "_owner",
          "type": "address"
        }
      ],
      "stateMutability": "nonpayable",
      "type": "constructor"
    },
    {
      "inputs": [
        {
          "internalType": "bytes32",
          "name": "",
          "type": "bytes32"
        }
      ],
      "name": "AlreadyProcessed",
      "type": "error"
    },
    {
      "inputs": [
        {
          "internalType": "uint256",
          "name": "",
          "type": "uint256"
        }
      ],
      "name": "InvalidAddressLength",
      "type": "error"
    },
    {
      "inputs": [],
      "name": "NotOwner",
      "type": "error"
    },
    {
      "inputs": [],
      "name": "TokenIsNotSupported",
      "type": "error"
    },
    {
      "inputs": [],
      "name": "WrongChain",
      "type": "error"
    },
    {
      "inputs": [],
      "name": "WrongSigner",
      "type": "error"
    },
    {
      "anonymous": false,
      "inputs": [
        {
          "components": [
            {
              "internalType": "bytes",
              "name": "from",
              "type": "bytes"
            },
            {
              "internalType": "bytes",
              "name": "to",
              "type": "bytes"
            },
            {
              "internalType": "string",
              "name": "tokenSymbol",
              "type": "string"
            },
            {
              "internalType": "uint256",
              "name": "amount",
              "type": "uint256"
            },
            {
              "internalType": "uint256",
              "name": "chainFrom",
              "type": "uint256"
            },
            {
              "internalType": "uint256",
              "name": "chainTo",
              "type": "uint256"
            },
            {
              "internalType": "uint256",
              "name": "nonce",
              "type": "uint256"
            }
          ],
          "indexed": false,
          "internalType": "struct ReceiptVerifier.Receipt",
          "name": "receipt",
          "type": "tuple"
        }
      ],
      "name": "Claimed",
      "type": "event"
    },
    {
      "anonymous": false,
      "inputs": [
        {
          "components": [
            {
              "internalType": "bytes",
              "name": "from",
              "type": "bytes"
            },
            {
              "internalType": "bytes",
              "name": "to",
              "type": "bytes"
            },
            {
              "internalType": "string",
              "name": "tokenSymbol",
              "type": "string"
            },
            {
              "internalType": "uint256",
              "name": "amount",
              "type": "uint256"
            },
            {
              "internalType": "uint256",
              "name": "chainFrom",
              "type": "uint256"
            },
            {
              "internalType": "uint256",
              "name": "chainTo",
              "type": "uint256"
            },
            {
              "internalType": "uint256",
              "name": "nonce",
              "type": "uint256"
            }
          ],
          "indexed": false,
          "internalType": "struct ReceiptVerifier.Receipt",
          "name": "receipt",
          "type": "tuple"
        }
      ],
      "name": "Sent",
      "type": "event"
    },
    {
      "inputs": [
        {
          "components": [
            {
              "internalType": "bytes",
              "name": "from",
              "type": "bytes"
            },
            {
              "internalType": "bytes",
              "name": "to",
              "type": "bytes"
            },
            {
              "internalType": "string",
              "name": "tokenSymbol",
              "type": "string"
            },
            {
              "internalType": "uint256",
              "name": "amount",
              "type": "uint256"
            },
            {
              "internalType": "uint256",
              "name": "chainFrom",
              "type": "uint256"
            },
            {
              "internalType": "uint256",
              "name": "chainTo",
              "type": "uint256"
            },
            {
              "internalType": "uint256",
              "name": "nonce",
              "type": "uint256"
            }
          ],
          "internalType": "struct ReceiptVerifier.Receipt",
          "name": "_receipt",
          "type": "tuple"
        },
        {
          "internalType": "bytes",
          "name": "_signature",
          "type": "bytes"
        }
      ],
      "name": "claim",
      "outputs": [],
      "stateMutability": "nonpayable",
      "type": "function"
    },
    {
      "inputs": [],
      "name": "owner",
      "outputs": [
        {
          "internalType": "address",
          "name": "",
          "type": "address"
        }
      ],
      "stateMutability": "view",
      "type": "function"
    },
    {
      "inputs": [
        {
          "internalType": "bytes32",
          "name": "",
          "type": "bytes32"
        }
      ],
      "name": "processed",
      "outputs": [
        {
          "internalType": "bool",
          "name": "",
          "type": "bool"
        }
      ],
      "stateMutability": "view",
      "type": "function"
    },
    {
      "inputs": [
        {
          "internalType": "string",
          "name": "_tokenSymbol",
          "type": "string"
        },
        {
          "internalType": "uint256",
          "name": "_chainTo",
          "type": "uint256"
        },
        {
          "internalType": "bytes",
          "name": "_recipientAddress",
          "type": "bytes"
        },
        {
          "internalType": "uint256",
          "name": "_amount",
          "type": "uint256"
        }
      ],
      "name": "send",
      "outputs": [],
      "stateMutability": "nonpayable",
      "type": "function"
    },
    {
      "inputs": [
        {
          "internalType": "address",
          "name": "_signer",
          "type": "address"
        }
      ],
      "name": "setSigner",
      "outputs": [],
      "stateMutability": "nonpayable",
      "type": "function"
    },
    {
      "inputs": [
        {
          "internalType": "string",
          "name": "_tokenSymbol",
          "type": "string"
        },
        {
          "internalType": "address",
          "name": "_address",
          "type": "address"
        }
      ],
      "name": "setTokenAddress",
      "outputs": [],
      "stateMutability": "nonpayable",
      "type": "function"
    },
    {
      "inputs": [],
      "name": "signer",
      "outputs": [
        {
          "internalType": "address",
          "name": "",
          "type": "address"
        }
      ],
      "stateMutability": "view",
      "type": "function"
    }
  ],
  "transactionHash": "0x2d0b061ffdea0b6fb3dc4378fdfd9673d02c5648845e1d80444bb77fada65f16",
  "args": [
    "0x668417616f1502D13EA1f9528F83072A133e8E01",
    "0x7295d96ED2C37173F0C3B4dB28447FE38202F27a"
  ],
  "numDeployments": 2,
  "solcInputHash": "5b59a66655cd4408bcd47f5867aa82a4",
  "bytecode": "0x60a06040523480156200001157600080fd5b506040516200204038038062002040833981810160405281019062000037919062000121565b81818073ffffffffffffffffffffffffffffffffffffffff1660808173ffffffffffffffffffffffffffffffffffffffff168152505050806000806101000a81548173ffffffffffffffffffffffffffffffffffffffff021916908373ffffffffffffffffffffffffffffffffffffffff16021790555050505062000168565b600080fd5b600073ffffffffffffffffffffffffffffffffffffffff82169050919050565b6000620000e982620000bc565b9050919050565b620000fb81620000dc565b81146200010757600080fd5b50565b6000815190506200011b81620000f0565b92915050565b600080604083850312156200013b576200013a620000b7565b5b60006200014b858286016200010a565b92505060206200015e858286016200010a565b9150509250929050565b608051611ebc62000184600039600061043b0152611ebc6000f3fe608060405234801561001057600080fd5b506004361061007d5760003560e01c80636c19e7831161005b5780636c19e783146100d85780638da5cb5b146100f4578063c1f0808a14610112578063edee9e0c146101425761007d565b806317456e5614610082578063238ac9331461009e5780636b27bd5d146100bc575b600080fd5b61009c60048036038101906100979190610efc565b61015e565b005b6100a661020a565b6040516100b39190610f6b565b60405180910390f35b6100d660048036038101906100d19190611000565b61022e565b005b6100f260048036038101906100ed919061107c565b6103eb565b005b6100fc610437565b6040516101099190610f6b565b60405180910390f35b61012c600480360381019061012791906110df565b61045f565b6040516101399190611127565b60405180910390f35b61015c60048036038101906101579190611178565b61047f565b005b610167336105f9565b80600260006101b986868080601f016020809104026020016040519081016040528093929190818152602001838380828437600081840152601f19601f82011690508083019250505050505050610668565b815260200190815260200160002060006101000a81548173ffffffffffffffffffffffffffffffffffffffff021916908373ffffffffffffffffffffffffffffffffffffffff160217905550505050565b60008054906101000a900473ffffffffffffffffffffffffffffffffffffffff1681565b6014838060200190610240919061122e565b90501461029557828060200190610257919061122e565b90506040517f6d1eca2800000000000000000000000000000000000000000000000000000000815260040161028c91906112a0565b60405180910390fd5b6102ec836102a2906115af565b83838080601f016020809104026020016040519081016040528093929190818152602001838380828437600081840152601f19601f82011690508083019250505050505050610679565b60008380602001906102fe919061122e565b8080601f016020809104026020016040519081016040528093929190818152602001838380828437600081840152601f19601f8201169050808301925050505050505090506000601482015190506103ad85806040019061035f91906115c2565b8080601f016020809104026020016040519081016040528093929190818152602001838380828437600081840152601f19601f820116905080830192505050505050508287606001356106a7565b7f0cb38794e0e411d2523a79500071789f20b38f05de571e7727b683ec5e02de4f856040516103dc9190611884565b60405180910390a15050505050565b6103f4336105f9565b806000806101000a81548173ffffffffffffffffffffffffffffffffffffffff021916908373ffffffffffffffffffffffffffffffffffffffff16021790555050565b60007f0000000000000000000000000000000000000000000000000000000000000000905090565b60016020528060005260406000206000915054906101000a900460ff1681565b6104ce86868080601f016020809104026020016040519081016040528093929190818152602001838380828437600081840152601f19601f8201169050808301925050505050505033836107f3565b7f48ff21665fd06edc79331b5b95ef7cb09efa49bf361b2cd701a4e5865b8be9f66040518060e001604052803360405160200161050b91906118ee565b604051602081830303815290604052815260200185858080601f016020809104026020016040519081016040528093929190818152602001838380828437600081840152601f19601f82011690508083019250505050505050815260200188888080601f016020809104026020016040519081016040528093929190818152602001838380828437600081840152601f19601f8201169050808301925050505050505081526020018381526020014681526020018681526020016105cf600361093f565b8152506040516105df9190611a65565b60405180910390a16105f1600361094d565b505050505050565b610601610437565b73ffffffffffffffffffffffffffffffffffffffff168173ffffffffffffffffffffffffffffffffffffffff1614610665576040517f30cd747100000000000000000000000000000000000000000000000000000000815260040160405180910390fd5b50565b600081805190602001209050919050565b61068282610963565b600061068d836109a3565b9050610698816109fb565b6106a28183610a8c565b505050565b60006106b284610668565b9050600073ffffffffffffffffffffffffffffffffffffffff166002600083815260200190815260200160002060009054906101000a900473ffffffffffffffffffffffffffffffffffffffff1673ffffffffffffffffffffffffffffffffffffffff160361074d576040517fc20350c500000000000000000000000000000000000000000000000000000000815260040160405180910390fd5b6002600082815260200190815260200160002060009054906101000a900473ffffffffffffffffffffffffffffffffffffffff1673ffffffffffffffffffffffffffffffffffffffff166340c10f1984846040518363ffffffff1660e01b81526004016107bb929190611a87565b600060405180830381600087803b1580156107d557600080fd5b505af11580156107e9573d6000803e3d6000fd5b5050505050505050565b60006107fe84610668565b9050600073ffffffffffffffffffffffffffffffffffffffff166002600083815260200190815260200160002060009054906101000a900473ffffffffffffffffffffffffffffffffffffffff1673ffffffffffffffffffffffffffffffffffffffff1603610899576040517fc20350c500000000000000000000000000000000000000000000000000000000815260040160405180910390fd5b6002600082815260200190815260200160002060009054906101000a900473ffffffffffffffffffffffffffffffffffffffff1673ffffffffffffffffffffffffffffffffffffffff16639dc29fac84846040518363ffffffff1660e01b8152600401610907929190611a87565b600060405180830381600087803b15801561092157600080fd5b505af1158015610935573d6000803e3d6000fd5b5050505050505050565b600081600001549050919050565b6001816000016000828254019250508190555050565b468160a00151146109a0576040517f10dfc03300000000000000000000000000000000000000000000000000000000815260040160405180910390fd5b50565b6000816000015182602001518360400151846060015185608001518660a001518760c001516040516020016109de9796959493929190611b49565b604051602081830303815290604052805190602001209050919050565b6001600082815260200190815260200160002060009054906101000a900460ff1615610a5e57806040517f1a20d3e6000000000000000000000000000000000000000000000000000000008152600401610a559190611bcd565b60405180910390fd5b600180600083815260200190815260200160002060006101000a81548160ff02191690831515021790555050565b6000610aa982610a9b85610b35565b610b6590919063ffffffff16565b905060008054906101000a900473ffffffffffffffffffffffffffffffffffffffff1673ffffffffffffffffffffffffffffffffffffffff168173ffffffffffffffffffffffffffffffffffffffff1614610b30576040517fa7932e6a00000000000000000000000000000000000000000000000000000000815260040160405180910390fd5b505050565b600081604051602001610b489190611c55565b604051602081830303815290604052805190602001209050919050565b6000806000610b748585610b8c565b91509150610b8181610bdd565b819250505092915050565b6000806041835103610bcd5760008060006020860151925060408601519150606086015160001a9050610bc187828585610d43565b94509450505050610bd6565b60006002915091505b9250929050565b60006004811115610bf157610bf0611c7b565b5b816004811115610c0457610c03611c7b565b5b0315610d405760016004811115610c1e57610c1d611c7b565b5b816004811115610c3157610c30611c7b565b5b03610c71576040517f08c379a0000000000000000000000000000000000000000000000000000000008152600401610c6890611d07565b60405180910390fd5b60026004811115610c8557610c84611c7b565b5b816004811115610c9857610c97611c7b565b5b03610cd8576040517f08c379a0000000000000000000000000000000000000000000000000000000008152600401610ccf90611d73565b60405180910390fd5b60036004811115610cec57610ceb611c7b565b5b816004811115610cff57610cfe611c7b565b5b03610d3f576040517f08c379a0000000000000000000000000000000000000000000000000000000008152600401610d3690611e05565b60405180910390fd5b5b50565b6000807f7fffffffffffffffffffffffffffffff5d576e7357a4501ddfe92f46681b20a08360001c1115610d7e576000600391509150610e1c565b600060018787878760405160008152602001604052604051610da39493929190611e41565b6020604051602081039080840390855afa158015610dc5573d6000803e3d6000fd5b505050602060405103519050600073ffffffffffffffffffffffffffffffffffffffff168173ffffffffffffffffffffffffffffffffffffffff1603610e1357600060019250925050610e1c565b80600092509250505b94509492505050565b6000604051905090565b600080fd5b600080fd5b600080fd5b600080fd5b600080fd5b60008083601f840112610e5e57610e5d610e39565b5b8235905067ffffffffffffffff811115610e7b57610e7a610e3e565b5b602083019150836001820283011115610e9757610e96610e43565b5b9250929050565b600073ffffffffffffffffffffffffffffffffffffffff82169050919050565b6000610ec982610e9e565b9050919050565b610ed981610ebe565b8114610ee457600080fd5b50565b600081359050610ef681610ed0565b92915050565b600080600060408486031215610f1557610f14610e2f565b5b600084013567ffffffffffffffff811115610f3357610f32610e34565b5b610f3f86828701610e48565b93509350506020610f5286828701610ee7565b9150509250925092565b610f6581610ebe565b82525050565b6000602082019050610f806000830184610f5c565b92915050565b600080fd5b600060e08284031215610fa157610fa0610f86565b5b81905092915050565b60008083601f840112610fc057610fbf610e39565b5b8235905067ffffffffffffffff811115610fdd57610fdc610e3e565b5b602083019150836001820283011115610ff957610ff8610e43565b5b9250929050565b60008060006040848603121561101957611018610e2f565b5b600084013567ffffffffffffffff81111561103757611036610e34565b5b61104386828701610f8b565b935050602084013567ffffffffffffffff81111561106457611063610e34565b5b61107086828701610faa565b92509250509250925092565b60006020828403121561109257611091610e2f565b5b60006110a084828501610ee7565b91505092915050565b6000819050919050565b6110bc816110a9565b81146110c757600080fd5b50565b6000813590506110d9816110b3565b92915050565b6000602082840312156110f5576110f4610e2f565b5b6000611103848285016110ca565b91505092915050565b60008115159050919050565b6111218161110c565b82525050565b600060208201905061113c6000830184611118565b92915050565b6000819050919050565b61115581611142565b811461116057600080fd5b50565b6000813590506111728161114c565b92915050565b6000806000806000806080878903121561119557611194610e2f565b5b600087013567ffffffffffffffff8111156111b3576111b2610e34565b5b6111bf89828a01610e48565b965096505060206111d289828a01611163565b945050604087013567ffffffffffffffff8111156111f3576111f2610e34565b5b6111ff89828a01610faa565b9350935050606061121289828a01611163565b9150509295509295509295565b600080fd5b600080fd5b600080fd5b6000808335600160200384360303811261124b5761124a61121f565b5b80840192508235915067ffffffffffffffff82111561126d5761126c611224565b5b60208301925060018202360383131561128957611288611229565b5b509250929050565b61129a81611142565b82525050565b60006020820190506112b56000830184611291565b92915050565b600080fd5b6000601f19601f8301169050919050565b7f4e487b7100000000000000000000000000000000000000000000000000000000600052604160045260246000fd5b611309826112c0565b810181811067ffffffffffffffff82111715611328576113276112d1565b5b80604052505050565b600061133b610e25565b90506113478282611300565b919050565b600080fd5b600080fd5b600067ffffffffffffffff821115611371576113706112d1565b5b61137a826112c0565b9050602081019050919050565b82818337600083830152505050565b60006113a96113a484611356565b611331565b9050828152602081018484840111156113c5576113c4611351565b5b6113d0848285611387565b509392505050565b600082601f8301126113ed576113ec610e39565b5b81356113fd848260208601611396565b91505092915050565b600067ffffffffffffffff821115611421576114206112d1565b5b61142a826112c0565b9050602081019050919050565b600061144a61144584611406565b611331565b90508281526020810184848401111561146657611465611351565b5b611471848285611387565b509392505050565b600082601f83011261148e5761148d610e39565b5b813561149e848260208601611437565b91505092915050565b600060e082840312156114bd576114bc6112bb565b5b6114c760e0611331565b9050600082013567ffffffffffffffff8111156114e7576114e661134c565b5b6114f3848285016113d8565b600083015250602082013567ffffffffffffffff8111156115175761151661134c565b5b611523848285016113d8565b602083015250604082013567ffffffffffffffff8111156115475761154661134c565b5b61155384828501611479565b604083015250606061156784828501611163565b606083015250608061157b84828501611163565b60808301525060a061158f84828501611163565b60a08301525060c06115a384828501611163565b60c08301525092915050565b60006115bb36836114a7565b9050919050565b600080833560016020038436030381126115df576115de61121f565b5b80840192508235915067ffffffffffffffff82111561160157611600611224565b5b60208301925060018202360383131561161d5761161c611229565b5b509250929050565b600080fd5b600080fd5b600080fd5b600080833560016020038436030381126116515761165061162f565b5b83810192508235915060208301925067ffffffffffffffff82111561167957611678611625565b5b60018202360383131561168f5761168e61162a565b5b509250929050565b600082825260208201905092915050565b60006116b48385611697565b93506116c1838584611387565b6116ca836112c0565b840190509392505050565b600080833560016020038436030381126116f2576116f161162f565b5b83810192508235915060208301925067ffffffffffffffff82111561171a57611719611625565b5b6001820236038313156117305761172f61162a565b5b509250929050565b600082825260208201905092915050565b60006117558385611738565b9350611762838584611387565b61176b836112c0565b840190509392505050565b60006117856020840184611163565b905092915050565b61179681611142565b82525050565b600060e083016117af6000840184611634565b85830360008701526117c28382846116a8565b925050506117d36020840184611634565b85830360208701526117e68382846116a8565b925050506117f760408401846116d5565b858303604087015261180a838284611749565b9250505061181b6060840184611776565b611828606086018261178d565b506118366080840184611776565b611843608086018261178d565b5061185160a0840184611776565b61185e60a086018261178d565b5061186c60c0840184611776565b61187960c086018261178d565b508091505092915050565b6000602082019050818103600083015261189e818461179c565b905092915050565b60008160601b9050919050565b60006118be826118a6565b9050919050565b60006118d0826118b3565b9050919050565b6118e86118e382610ebe565b6118c5565b82525050565b60006118fa82846118d7565b60148201915081905092915050565b600081519050919050565b60005b83811015611932578082015181840152602081019050611917565b60008484015250505050565b600061194982611909565b6119538185611697565b9350611963818560208601611914565b61196c816112c0565b840191505092915050565b600081519050919050565b600061198d82611977565b6119978185611738565b93506119a7818560208601611914565b6119b0816112c0565b840191505092915050565b600060e08301600083015184820360008601526119d8828261193e565b915050602083015184820360208601526119f2828261193e565b91505060408301518482036040860152611a0c8282611982565b9150506060830151611a21606086018261178d565b506080830151611a34608086018261178d565b5060a0830151611a4760a086018261178d565b5060c0830151611a5a60c086018261178d565b508091505092915050565b60006020820190508181036000830152611a7f81846119bb565b905092915050565b6000604082019050611a9c6000830185610f5c565b611aa96020830184611291565b9392505050565b600081905092915050565b6000611ac682611909565b611ad08185611ab0565b9350611ae0818560208601611914565b80840191505092915050565b600081905092915050565b6000611b0282611977565b611b0c8185611aec565b9350611b1c818560208601611914565b80840191505092915050565b6000819050919050565b611b43611b3e82611142565b611b28565b82525050565b6000611b55828a611abb565b9150611b618289611abb565b9150611b6d8288611af7565b9150611b798287611b32565b602082019150611b898286611b32565b602082019150611b998285611b32565b602082019150611ba98284611b32565b60208201915081905098975050505050505050565b611bc7816110a9565b82525050565b6000602082019050611be26000830184611bbe565b92915050565b7f19457468657265756d205369676e6564204d6573736167653a0a333200000000600082015250565b6000611c1e601c83611aec565b9150611c2982611be8565b601c82019050919050565b6000819050919050565b611c4f611c4a826110a9565b611c34565b82525050565b6000611c6082611c11565b9150611c6c8284611c3e565b60208201915081905092915050565b7f4e487b7100000000000000000000000000000000000000000000000000000000600052602160045260246000fd5b600082825260208201905092915050565b7f45434453413a20696e76616c6964207369676e61747572650000000000000000600082015250565b6000611cf1601883611caa565b9150611cfc82611cbb565b602082019050919050565b60006020820190508181036000830152611d2081611ce4565b9050919050565b7f45434453413a20696e76616c6964207369676e6174757265206c656e67746800600082015250565b6000611d5d601f83611caa565b9150611d6882611d27565b602082019050919050565b60006020820190508181036000830152611d8c81611d50565b9050919050565b7f45434453413a20696e76616c6964207369676e6174757265202773272076616c60008201527f7565000000000000000000000000000000000000000000000000000000000000602082015250565b6000611def602283611caa565b9150611dfa82611d93565b604082019050919050565b60006020820190508181036000830152611e1e81611de2565b9050919050565b600060ff82169050919050565b611e3b81611e25565b82525050565b6000608082019050611e566000830187611bbe565b611e636020830186611e32565b611e706040830185611bbe565b611e7d6060830184611bbe565b9594505050505056fea264697066735822122022c696c61b5342179ee515a628f68f29cf2d0085fcf573e00997d74b6983505964736f6c63430008100033",
  "devdoc": {
    "kind": "dev",
    "methods": {},
    "version": 1
  },
  "userdoc": {
    "kind": "user",
    "methods": {},
    "version": 1
  },
  "storageLayout": {
    "storage": [
      {
        "astId": 1956,
        "contract": "contracts/Bridge.sol:Bridge",
        "label": "signer",
        "offset": 0,
        "slot": "0",
        "type": "t_address"
      },
      {
        "astId": 1830,
        "contract": "contracts/Bridge.sol:Bridge",
        "label": "processed",
        "offset": 0,
        "slot": "1",
        "type": "t_mapping(t_bytes32,t_bool)"
      },
      {
        "astId": 1682,
        "contract": "contracts/Bridge.sol:Bridge",
        "label": "tokenSymbolHash2Address",
        "offset": 0,
        "slot": "2",
        "type": "t_mapping(t_bytes32,t_address)"
      },
      {
        "astId": 1515,
        "contract": "contracts/Bridge.sol:Bridge",
        "label": "nonce",
        "offset": 0,
        "slot": "3",
        "type": "t_struct(Counter)5_storage"
      }
    ],
    "types": {
      "t_address": {
        "encoding": "inplace",
        "label": "address",
        "numberOfBytes": "20"
      },
      "t_bool": {
        "encoding": "inplace",
        "label": "bool",
        "numberOfBytes": "1"
      },
      "t_bytes32": {
        "encoding": "inplace",
        "label": "bytes32",
        "numberOfBytes": "32"
      },
      "t_mapping(t_bytes32,t_address)": {
        "encoding": "mapping",
        "key": "t_bytes32",
        "label": "mapping(bytes32 => address)",
        "numberOfBytes": "32",
        "value": "t_address"
      },
      "t_mapping(t_bytes32,t_bool)": {
        "encoding": "mapping",
        "key": "t_bytes32",
        "label": "mapping(bytes32 => bool)",
        "numberOfBytes": "32",
        "value": "t_bool"
      },
      "t_struct(Counter)5_storage": {
        "encoding": "inplace",
        "label": "struct Counters.Counter",
        "members": [
          {
            "astId": 4,
            "contract": "contracts/Bridge.sol:Bridge",
            "label": "_value",
            "offset": 0,
            "slot": "0",
            "type": "t_uint256"
          }
        ],
        "numberOfBytes": "32"
      },
      "t_uint256": {
        "encoding": "inplace",
        "label": "uint256",
        "numberOfBytes": "32"
      }
    }
  }
}