{
  "address": "0xA7edb289c6CCF3e119c1e98D4788f59d45BEd909",
  "abi": [
    {
      "inputs": [
        {
          "internalType": "address",
          "name": "_signer",
          "type": "address"
        },
        {
          "internalType": "address",
          "name": "_owner",
          "type": "address"
        }
      ],
      "stateMutability": "nonpayable",
      "type": "constructor"
    },
    {
      "inputs": [
        {
          "internalType": "bytes32",
          "name": "",
          "type": "bytes32"
        }
      ],
      "name": "AlreadyProcessed",
      "type": "error"
    },
    {
      "inputs": [],
      "name": "NotOwner",
      "type": "error"
    },
    {
      "inputs": [],
      "name": "TokenIsNotSupported",
      "type": "error"
    },
    {
      "inputs": [],
      "name": "WrongChain",
      "type": "error"
    },
    {
      "inputs": [],
      "name": "WrongSigner",
      "type": "error"
    },
    {
      "anonymous": false,
      "inputs": [
        {
          "components": [
            {
              "internalType": "address",
              "name": "from",
              "type": "address"
            },
            {
              "internalType": "address",
              "name": "to",
              "type": "address"
            },
            {
              "internalType": "string",
              "name": "tokenName",
              "type": "string"
            },
            {
              "internalType": "uint256",
              "name": "amount",
              "type": "uint256"
            },
            {
              "internalType": "uint256",
              "name": "chainFrom",
              "type": "uint256"
            },
            {
              "internalType": "uint256",
              "name": "chainTo",
              "type": "uint256"
            },
            {
              "internalType": "uint256",
              "name": "nonce",
              "type": "uint256"
            }
          ],
          "indexed": false,
          "internalType": "struct ReceiptVerifier.Receipt",
          "name": "receipt",
          "type": "tuple"
        }
      ],
      "name": "Claimed",
      "type": "event"
    },
    {
      "anonymous": false,
      "inputs": [
        {
          "components": [
            {
              "internalType": "address",
              "name": "from",
              "type": "address"
            },
            {
              "internalType": "address",
              "name": "to",
              "type": "address"
            },
            {
              "internalType": "string",
              "name": "tokenName",
              "type": "string"
            },
            {
              "internalType": "uint256",
              "name": "amount",
              "type": "uint256"
            },
            {
              "internalType": "uint256",
              "name": "chainFrom",
              "type": "uint256"
            },
            {
              "internalType": "uint256",
              "name": "chainTo",
              "type": "uint256"
            },
            {
              "internalType": "uint256",
              "name": "nonce",
              "type": "uint256"
            }
          ],
          "indexed": false,
          "internalType": "struct ReceiptVerifier.Receipt",
          "name": "receipt",
          "type": "tuple"
        }
      ],
      "name": "Sent",
      "type": "event"
    },
    {
      "inputs": [
        {
          "components": [
            {
              "internalType": "address",
              "name": "from",
              "type": "address"
            },
            {
              "internalType": "address",
              "name": "to",
              "type": "address"
            },
            {
              "internalType": "string",
              "name": "tokenName",
              "type": "string"
            },
            {
              "internalType": "uint256",
              "name": "amount",
              "type": "uint256"
            },
            {
              "internalType": "uint256",
              "name": "chainFrom",
              "type": "uint256"
            },
            {
              "internalType": "uint256",
              "name": "chainTo",
              "type": "uint256"
            },
            {
              "internalType": "uint256",
              "name": "nonce",
              "type": "uint256"
            }
          ],
          "internalType": "struct ReceiptVerifier.Receipt",
          "name": "_receipt",
          "type": "tuple"
        },
        {
          "internalType": "bytes",
          "name": "_signature",
          "type": "bytes"
        }
      ],
      "name": "claim",
      "outputs": [],
      "stateMutability": "nonpayable",
      "type": "function"
    },
    {
      "inputs": [],
      "name": "owner",
      "outputs": [
        {
          "internalType": "address",
          "name": "",
          "type": "address"
        }
      ],
      "stateMutability": "view",
      "type": "function"
    },
    {
      "inputs": [
        {
          "internalType": "bytes32",
          "name": "",
          "type": "bytes32"
        }
      ],
      "name": "processed",
      "outputs": [
        {
          "internalType": "bool",
          "name": "",
          "type": "bool"
        }
      ],
      "stateMutability": "view",
      "type": "function"
    },
    {
      "inputs": [
        {
          "internalType": "string",
          "name": "_tokenName",
          "type": "string"
        },
        {
          "internalType": "uint256",
          "name": "_chainTo",
          "type": "uint256"
        },
        {
          "internalType": "address",
          "name": "_recipient",
          "type": "address"
        },
        {
          "internalType": "uint256",
          "name": "_amount",
          "type": "uint256"
        }
      ],
      "name": "send",
      "outputs": [],
      "stateMutability": "nonpayable",
      "type": "function"
    },
    {
      "inputs": [
        {
          "internalType": "address",
          "name": "_signer",
          "type": "address"
        }
      ],
      "name": "setSigner",
      "outputs": [],
      "stateMutability": "nonpayable",
      "type": "function"
    },
    {
      "inputs": [
        {
          "internalType": "string",
          "name": "_tokenName",
          "type": "string"
        },
        {
          "internalType": "address",
          "name": "_address",
          "type": "address"
        }
      ],
      "name": "setTokenAddress",
      "outputs": [],
      "stateMutability": "nonpayable",
      "type": "function"
    },
    {
      "inputs": [],
      "name": "signer",
      "outputs": [
        {
          "internalType": "address",
          "name": "",
          "type": "address"
        }
      ],
      "stateMutability": "view",
      "type": "function"
    }
  ],
  "transactionHash": "0xc826dd9e10f4ab6aae457d41dc1a5bf434cbbd65bd9bcdf9a9cb05309eb49131",
  "args": [
    "0x668417616f1502D13EA1f9528F83072A133e8E01",
    "0x7295d96ED2C37173F0C3B4dB28447FE38202F27a"
  ],
  "numDeployments": 1,
  "solcInputHash": "e4dafea75240895542d47ea9c882db86",
  "bytecode": "0x60a06040523480156200001157600080fd5b5060405162001cad38038062001cad833981810160405281019062000037919062000121565b81818073ffffffffffffffffffffffffffffffffffffffff1660808173ffffffffffffffffffffffffffffffffffffffff168152505050806000806101000a81548173ffffffffffffffffffffffffffffffffffffffff021916908373ffffffffffffffffffffffffffffffffffffffff16021790555050505062000168565b600080fd5b600073ffffffffffffffffffffffffffffffffffffffff82169050919050565b6000620000e982620000bc565b9050919050565b620000fb81620000dc565b81146200010757600080fd5b50565b6000815190506200011b81620000f0565b92915050565b600080604083850312156200013b576200013a620000b7565b5b60006200014b858286016200010a565b92505060206200015e858286016200010a565b9150509250929050565b608051611b296200018460003960006103840152611b296000f3fe608060405234801561001057600080fd5b506004361061007d5760003560e01c8063893694461161005b57806389369446146100d85780638da5cb5b146100f4578063c1f0808a14610112578063c77a8405146101425761007d565b806317456e5614610082578063238ac9331461009e5780636c19e783146100bc575b600080fd5b61009c60048036038101906100979190610e0d565b61015e565b005b6100a661020a565b6040516100b39190610e7c565b60405180910390f35b6100d660048036038101906100d19190610e97565b61022e565b005b6100f260048036038101906100ed9190610f3e565b61027a565b005b6100fc610380565b6040516101099190610e7c565b60405180910390f35b61012c60048036038101906101279190610ff0565b6103a8565b6040516101399190611038565b60405180910390f35b61015c60048036038101906101579190611089565b6103c8565b005b6101673361050a565b80600260006101b986868080601f016020809104026020016040519081016040528093929190818152602001838380828437600081840152601f19601f82011690508083019250505050505050610579565b815260200190815260200160002060006101000a81548173ffffffffffffffffffffffffffffffffffffffff021916908373ffffffffffffffffffffffffffffffffffffffff160217905550505050565b60008054906101000a900473ffffffffffffffffffffffffffffffffffffffff1681565b6102373361050a565b806000806101000a81548173ffffffffffffffffffffffffffffffffffffffff021916908373ffffffffffffffffffffffffffffffffffffffff16021790555050565b6102d1836102879061132c565b83838080601f016020809104026020016040519081016040528093929190818152602001838380828437600081840152601f19601f8201169050808301925050505050505061058a565b6103448380604001906102e4919061134e565b8080601f016020809104026020016040519081016040528093929190818152602001838380828437600081840152601f19601f8201169050808301925050505050505084602001602081019061033a9190610e97565b85606001356105b8565b7fbd385bbbf2ad911dcde8a07776b74318254842c3c16a4bffd323bb4c276db66c836040516103739190611583565b60405180910390a1505050565b60007f0000000000000000000000000000000000000000000000000000000000000000905090565b60016020528060005260406000206000915054906101000a900460ff1681565b61041785858080601f016020809104026020016040519081016040528093929190818152602001838380828437600081840152601f19601f820116905080830192505050505050503383610704565b7fff2467802893a45d9e6911f484910733043132c5f1c48fcefd4a33795533d2546040518060e001604052803373ffffffffffffffffffffffffffffffffffffffff1681526020018473ffffffffffffffffffffffffffffffffffffffff16815260200187878080601f016020809104026020016040519081016040528093929190818152602001838380828437600081840152601f19601f8201169050808301925050505050505081526020018381526020014681526020018581526020016104e16003610850565b8152506040516104f191906116af565b60405180910390a1610503600361085e565b5050505050565b610512610380565b73ffffffffffffffffffffffffffffffffffffffff168173ffffffffffffffffffffffffffffffffffffffff1614610576576040517f30cd747100000000000000000000000000000000000000000000000000000000815260040160405180910390fd5b50565b600081805190602001209050919050565b61059382610874565b600061059e836108b4565b90506105a98161090c565b6105b3818361099d565b505050565b60006105c384610579565b9050600073ffffffffffffffffffffffffffffffffffffffff166002600083815260200190815260200160002060009054906101000a900473ffffffffffffffffffffffffffffffffffffffff1673ffffffffffffffffffffffffffffffffffffffff160361065e576040517fc20350c500000000000000000000000000000000000000000000000000000000815260040160405180910390fd5b6002600082815260200190815260200160002060009054906101000a900473ffffffffffffffffffffffffffffffffffffffff1673ffffffffffffffffffffffffffffffffffffffff166340c10f1984846040518363ffffffff1660e01b81526004016106cc9291906116e0565b600060405180830381600087803b1580156106e657600080fd5b505af11580156106fa573d6000803e3d6000fd5b5050505050505050565b600061070f84610579565b9050600073ffffffffffffffffffffffffffffffffffffffff166002600083815260200190815260200160002060009054906101000a900473ffffffffffffffffffffffffffffffffffffffff1673ffffffffffffffffffffffffffffffffffffffff16036107aa576040517fc20350c500000000000000000000000000000000000000000000000000000000815260040160405180910390fd5b6002600082815260200190815260200160002060009054906101000a900473ffffffffffffffffffffffffffffffffffffffff1673ffffffffffffffffffffffffffffffffffffffff16639dc29fac84846040518363ffffffff1660e01b81526004016108189291906116e0565b600060405180830381600087803b15801561083257600080fd5b505af1158015610846573d6000803e3d6000fd5b5050505050505050565b600081600001549050919050565b6001816000016000828254019250508190555050565b468160a00151146108b1576040517f10dfc03300000000000000000000000000000000000000000000000000000000815260040160405180910390fd5b50565b6000816000015182602001518360400151846060015185608001518660a001518760c001516040516020016108ef97969594939291906117ae565b604051602081830303815290604052805190602001209050919050565b6001600082815260200190815260200160002060009054906101000a900460ff161561096f57806040517f1a20d3e6000000000000000000000000000000000000000000000000000000008152600401610966919061183a565b60405180910390fd5b600180600083815260200190815260200160002060006101000a81548160ff02191690831515021790555050565b60006109ba826109ac85610a46565b610a7690919063ffffffff16565b905060008054906101000a900473ffffffffffffffffffffffffffffffffffffffff1673ffffffffffffffffffffffffffffffffffffffff168173ffffffffffffffffffffffffffffffffffffffff1614610a41576040517fa7932e6a00000000000000000000000000000000000000000000000000000000815260040160405180910390fd5b505050565b600081604051602001610a5991906118c2565b604051602081830303815290604052805190602001209050919050565b6000806000610a858585610a9d565b91509150610a9281610aee565b819250505092915050565b6000806041835103610ade5760008060006020860151925060408601519150606086015160001a9050610ad287828585610c54565b94509450505050610ae7565b60006002915091505b9250929050565b60006004811115610b0257610b016118e8565b5b816004811115610b1557610b146118e8565b5b0315610c515760016004811115610b2f57610b2e6118e8565b5b816004811115610b4257610b416118e8565b5b03610b82576040517f08c379a0000000000000000000000000000000000000000000000000000000008152600401610b7990611974565b60405180910390fd5b60026004811115610b9657610b956118e8565b5b816004811115610ba957610ba86118e8565b5b03610be9576040517f08c379a0000000000000000000000000000000000000000000000000000000008152600401610be0906119e0565b60405180910390fd5b60036004811115610bfd57610bfc6118e8565b5b816004811115610c1057610c0f6118e8565b5b03610c50576040517f08c379a0000000000000000000000000000000000000000000000000000000008152600401610c4790611a72565b60405180910390fd5b5b50565b6000807f7fffffffffffffffffffffffffffffff5d576e7357a4501ddfe92f46681b20a08360001c1115610c8f576000600391509150610d2d565b600060018787878760405160008152602001604052604051610cb49493929190611aae565b6020604051602081039080840390855afa158015610cd6573d6000803e3d6000fd5b505050602060405103519050600073ffffffffffffffffffffffffffffffffffffffff168173ffffffffffffffffffffffffffffffffffffffff1603610d2457600060019250925050610d2d565b80600092509250505b94509492505050565b6000604051905090565b600080fd5b600080fd5b600080fd5b600080fd5b600080fd5b60008083601f840112610d6f57610d6e610d4a565b5b8235905067ffffffffffffffff811115610d8c57610d8b610d4f565b5b602083019150836001820283011115610da857610da7610d54565b5b9250929050565b600073ffffffffffffffffffffffffffffffffffffffff82169050919050565b6000610dda82610daf565b9050919050565b610dea81610dcf565b8114610df557600080fd5b50565b600081359050610e0781610de1565b92915050565b600080600060408486031215610e2657610e25610d40565b5b600084013567ffffffffffffffff811115610e4457610e43610d45565b5b610e5086828701610d59565b93509350506020610e6386828701610df8565b9150509250925092565b610e7681610dcf565b82525050565b6000602082019050610e916000830184610e6d565b92915050565b600060208284031215610ead57610eac610d40565b5b6000610ebb84828501610df8565b91505092915050565b600080fd5b600060e08284031215610edf57610ede610ec4565b5b81905092915050565b60008083601f840112610efe57610efd610d4a565b5b8235905067ffffffffffffffff811115610f1b57610f1a610d4f565b5b602083019150836001820283011115610f3757610f36610d54565b5b9250929050565b600080600060408486031215610f5757610f56610d40565b5b600084013567ffffffffffffffff811115610f7557610f74610d45565b5b610f8186828701610ec9565b935050602084013567ffffffffffffffff811115610fa257610fa1610d45565b5b610fae86828701610ee8565b92509250509250925092565b6000819050919050565b610fcd81610fba565b8114610fd857600080fd5b50565b600081359050610fea81610fc4565b92915050565b60006020828403121561100657611005610d40565b5b600061101484828501610fdb565b91505092915050565b60008115159050919050565b6110328161101d565b82525050565b600060208201905061104d6000830184611029565b92915050565b6000819050919050565b61106681611053565b811461107157600080fd5b50565b6000813590506110838161105d565b92915050565b6000806000806000608086880312156110a5576110a4610d40565b5b600086013567ffffffffffffffff8111156110c3576110c2610d45565b5b6110cf88828901610d59565b955095505060206110e288828901611074565b93505060406110f388828901610df8565b925050606061110488828901611074565b9150509295509295909350565b600080fd5b6000601f19601f8301169050919050565b7f4e487b7100000000000000000000000000000000000000000000000000000000600052604160045260246000fd5b61115f82611116565b810181811067ffffffffffffffff8211171561117e5761117d611127565b5b80604052505050565b6000611191610d36565b905061119d8282611156565b919050565b600080fd5b600080fd5b600067ffffffffffffffff8211156111c7576111c6611127565b5b6111d082611116565b9050602081019050919050565b82818337600083830152505050565b60006111ff6111fa846111ac565b611187565b90508281526020810184848401111561121b5761121a6111a7565b5b6112268482856111dd565b509392505050565b600082601f83011261124357611242610d4a565b5b81356112538482602086016111ec565b91505092915050565b600060e0828403121561127257611271611111565b5b61127c60e0611187565b9050600061128c84828501610df8565b60008301525060206112a084828501610df8565b602083015250604082013567ffffffffffffffff8111156112c4576112c36111a2565b5b6112d08482850161122e565b60408301525060606112e484828501611074565b60608301525060806112f884828501611074565b60808301525060a061130c84828501611074565b60a08301525060c061132084828501611074565b60c08301525092915050565b6000611338368361125c565b9050919050565b600080fd5b600080fd5b600080fd5b6000808335600160200384360303811261136b5761136a61133f565b5b80840192508235915067ffffffffffffffff82111561138d5761138c611344565b5b6020830192506001820236038313156113a9576113a8611349565b5b509250929050565b60006113c06020840184610df8565b905092915050565b6113d181610dcf565b82525050565b600080fd5b600080fd5b600080fd5b60008083356001602003843603038112611403576114026113e1565b5b83810192508235915060208301925067ffffffffffffffff82111561142b5761142a6113d7565b5b600182023603831315611441576114406113dc565b5b509250929050565b600082825260208201905092915050565b60006114668385611449565b93506114738385846111dd565b61147c83611116565b840190509392505050565b60006114966020840184611074565b905092915050565b6114a781611053565b82525050565b600060e083016114c060008401846113b1565b6114cd60008601826113c8565b506114db60208401846113b1565b6114e860208601826113c8565b506114f660408401846113e6565b858303604087015261150983828461145a565b9250505061151a6060840184611487565b611527606086018261149e565b506115356080840184611487565b611542608086018261149e565b5061155060a0840184611487565b61155d60a086018261149e565b5061156b60c0840184611487565b61157860c086018261149e565b508091505092915050565b6000602082019050818103600083015261159d81846114ad565b905092915050565b600081519050919050565b60005b838110156115ce5780820151818401526020810190506115b3565b60008484015250505050565b60006115e5826115a5565b6115ef8185611449565b93506115ff8185602086016115b0565b61160881611116565b840191505092915050565b600060e08301600083015161162b60008601826113c8565b50602083015161163e60208601826113c8565b506040830151848203604086015261165682826115da565b915050606083015161166b606086018261149e565b50608083015161167e608086018261149e565b5060a083015161169160a086018261149e565b5060c08301516116a460c086018261149e565b508091505092915050565b600060208201905081810360008301526116c98184611613565b905092915050565b6116da81611053565b82525050565b60006040820190506116f56000830185610e6d565b61170260208301846116d1565b9392505050565b60008160601b9050919050565b600061172182611709565b9050919050565b600061173382611716565b9050919050565b61174b61174682610dcf565b611728565b82525050565b600081905092915050565b6000611767826115a5565b6117718185611751565b93506117818185602086016115b0565b80840191505092915050565b6000819050919050565b6117a86117a382611053565b61178d565b82525050565b60006117ba828a61173a565b6014820191506117ca828961173a565b6014820191506117da828861175c565b91506117e68287611797565b6020820191506117f68286611797565b6020820191506118068285611797565b6020820191506118168284611797565b60208201915081905098975050505050505050565b61183481610fba565b82525050565b600060208201905061184f600083018461182b565b92915050565b7f19457468657265756d205369676e6564204d6573736167653a0a333200000000600082015250565b600061188b601c83611751565b915061189682611855565b601c82019050919050565b6000819050919050565b6118bc6118b782610fba565b6118a1565b82525050565b60006118cd8261187e565b91506118d982846118ab565b60208201915081905092915050565b7f4e487b7100000000000000000000000000000000000000000000000000000000600052602160045260246000fd5b600082825260208201905092915050565b7f45434453413a20696e76616c6964207369676e61747572650000000000000000600082015250565b600061195e601883611917565b915061196982611928565b602082019050919050565b6000602082019050818103600083015261198d81611951565b9050919050565b7f45434453413a20696e76616c6964207369676e6174757265206c656e67746800600082015250565b60006119ca601f83611917565b91506119d582611994565b602082019050919050565b600060208201905081810360008301526119f9816119bd565b9050919050565b7f45434453413a20696e76616c6964207369676e6174757265202773272076616c60008201527f7565000000000000000000000000000000000000000000000000000000000000602082015250565b6000611a5c602283611917565b9150611a6782611a00565b604082019050919050565b60006020820190508181036000830152611a8b81611a4f565b9050919050565b600060ff82169050919050565b611aa881611a92565b82525050565b6000608082019050611ac3600083018761182b565b611ad06020830186611a9f565b611add604083018561182b565b611aea606083018461182b565b9594505050505056fea2646970667358221220e02d9889d892aa08c214af88387a4831864b5a20f1a6160e3f010ab26e80fac964736f6c63430008100033",
  "devdoc": {
    "kind": "dev",
    "methods": {},
    "version": 1
  },
  "userdoc": {
    "kind": "user",
    "methods": {},
    "version": 1
  },
  "storageLayout": {
    "storage": [
      {
        "astId": 1929,
        "contract": "contracts/Bridge.sol:Bridge",
        "label": "signer",
        "offset": 0,
        "slot": "0",
        "type": "t_address"
      },
      {
        "astId": 1803,
        "contract": "contracts/Bridge.sol:Bridge",
        "label": "processed",
        "offset": 0,
        "slot": "1",
        "type": "t_mapping(t_bytes32,t_bool)"
      },
      {
        "astId": 1655,
        "contract": "contracts/Bridge.sol:Bridge",
        "label": "tokenNameHash2Address",
        "offset": 0,
        "slot": "2",
        "type": "t_mapping(t_bytes32,t_address)"
      },
      {
        "astId": 1511,
        "contract": "contracts/Bridge.sol:Bridge",
        "label": "nonce",
        "offset": 0,
        "slot": "3",
        "type": "t_struct(Counter)5_storage"
      }
    ],
    "types": {
      "t_address": {
        "encoding": "inplace",
        "label": "address",
        "numberOfBytes": "20"
      },
      "t_bool": {
        "encoding": "inplace",
        "label": "bool",
        "numberOfBytes": "1"
      },
      "t_bytes32": {
        "encoding": "inplace",
        "label": "bytes32",
        "numberOfBytes": "32"
      },
      "t_mapping(t_bytes32,t_address)": {
        "encoding": "mapping",
        "key": "t_bytes32",
        "label": "mapping(bytes32 => address)",
        "numberOfBytes": "32",
        "value": "t_address"
      },
      "t_mapping(t_bytes32,t_bool)": {
        "encoding": "mapping",
        "key": "t_bytes32",
        "label": "mapping(bytes32 => bool)",
        "numberOfBytes": "32",
        "value": "t_bool"
      },
      "t_struct(Counter)5_storage": {
        "encoding": "inplace",
        "label": "struct Counters.Counter",
        "members": [
          {
            "astId": 4,
            "contract": "contracts/Bridge.sol:Bridge",
            "label": "_value",
            "offset": 0,
            "slot": "0",
            "type": "t_uint256"
          }
        ],
        "numberOfBytes": "32"
      },
      "t_uint256": {
        "encoding": "inplace",
        "label": "uint256",
        "numberOfBytes": "32"
      }
    }
  }
}