{
  "address": "0xF25580910F9E52a86C87f742110B5f03edEcb23a",
  "abi": [
    {
      "inputs": [
        {
          "internalType": "address",
          "name": "_signer",
          "type": "address"
        },
        {
          "internalType": "address",
          "name": "_owner",
          "type": "address"
        }
      ],
      "stateMutability": "nonpayable",
      "type": "constructor"
    },
    {
      "inputs": [
        {
          "internalType": "bytes32",
          "name": "",
          "type": "bytes32"
        }
      ],
      "name": "AlreadyProcessed",
      "type": "error"
    },
    {
      "inputs": [
        {
          "internalType": "uint256",
          "name": "",
          "type": "uint256"
        }
      ],
      "name": "InvalidAddressLength",
      "type": "error"
    },
    {
      "inputs": [],
      "name": "NotOwner",
      "type": "error"
    },
    {
      "inputs": [],
      "name": "TokenIsNotSupported",
      "type": "error"
    },
    {
      "inputs": [],
      "name": "WrongChain",
      "type": "error"
    },
    {
      "inputs": [],
      "name": "WrongSigner",
      "type": "error"
    },
    {
      "anonymous": false,
      "inputs": [
        {
          "components": [
            {
              "internalType": "address",
              "name": "from",
              "type": "address"
            },
            {
              "internalType": "bytes",
              "name": "to",
              "type": "bytes"
            },
            {
              "internalType": "string",
              "name": "tokenName",
              "type": "string"
            },
            {
              "internalType": "uint256",
              "name": "amount",
              "type": "uint256"
            },
            {
              "internalType": "uint256",
              "name": "chainFrom",
              "type": "uint256"
            },
            {
              "internalType": "uint256",
              "name": "chainTo",
              "type": "uint256"
            },
            {
              "internalType": "uint256",
              "name": "nonce",
              "type": "uint256"
            }
          ],
          "indexed": false,
          "internalType": "struct ReceiptVerifier.Receipt",
          "name": "receipt",
          "type": "tuple"
        }
      ],
      "name": "Claimed",
      "type": "event"
    },
    {
      "anonymous": false,
      "inputs": [
        {
          "components": [
            {
              "internalType": "address",
              "name": "from",
              "type": "address"
            },
            {
              "internalType": "bytes",
              "name": "to",
              "type": "bytes"
            },
            {
              "internalType": "string",
              "name": "tokenName",
              "type": "string"
            },
            {
              "internalType": "uint256",
              "name": "amount",
              "type": "uint256"
            },
            {
              "internalType": "uint256",
              "name": "chainFrom",
              "type": "uint256"
            },
            {
              "internalType": "uint256",
              "name": "chainTo",
              "type": "uint256"
            },
            {
              "internalType": "uint256",
              "name": "nonce",
              "type": "uint256"
            }
          ],
          "indexed": false,
          "internalType": "struct ReceiptVerifier.Receipt",
          "name": "receipt",
          "type": "tuple"
        }
      ],
      "name": "Sent",
      "type": "event"
    },
    {
      "inputs": [
        {
          "components": [
            {
              "internalType": "address",
              "name": "from",
              "type": "address"
            },
            {
              "internalType": "bytes",
              "name": "to",
              "type": "bytes"
            },
            {
              "internalType": "string",
              "name": "tokenName",
              "type": "string"
            },
            {
              "internalType": "uint256",
              "name": "amount",
              "type": "uint256"
            },
            {
              "internalType": "uint256",
              "name": "chainFrom",
              "type": "uint256"
            },
            {
              "internalType": "uint256",
              "name": "chainTo",
              "type": "uint256"
            },
            {
              "internalType": "uint256",
              "name": "nonce",
              "type": "uint256"
            }
          ],
          "internalType": "struct ReceiptVerifier.Receipt",
          "name": "_receipt",
          "type": "tuple"
        },
        {
          "internalType": "bytes",
          "name": "_signature",
          "type": "bytes"
        }
      ],
      "name": "claim",
      "outputs": [],
      "stateMutability": "nonpayable",
      "type": "function"
    },
    {
      "inputs": [],
      "name": "owner",
      "outputs": [
        {
          "internalType": "address",
          "name": "",
          "type": "address"
        }
      ],
      "stateMutability": "view",
      "type": "function"
    },
    {
      "inputs": [
        {
          "internalType": "bytes32",
          "name": "",
          "type": "bytes32"
        }
      ],
      "name": "processed",
      "outputs": [
        {
          "internalType": "bool",
          "name": "",
          "type": "bool"
        }
      ],
      "stateMutability": "view",
      "type": "function"
    },
    {
      "inputs": [
        {
          "internalType": "string",
          "name": "_tokenName",
          "type": "string"
        },
        {
          "internalType": "uint256",
          "name": "_chainTo",
          "type": "uint256"
        },
        {
          "internalType": "bytes",
          "name": "_recipientAddress",
          "type": "bytes"
        },
        {
          "internalType": "uint256",
          "name": "_amount",
          "type": "uint256"
        }
      ],
      "name": "send",
      "outputs": [],
      "stateMutability": "nonpayable",
      "type": "function"
    },
    {
      "inputs": [
        {
          "internalType": "address",
          "name": "_signer",
          "type": "address"
        }
      ],
      "name": "setSigner",
      "outputs": [],
      "stateMutability": "nonpayable",
      "type": "function"
    },
    {
      "inputs": [
        {
          "internalType": "string",
          "name": "_tokenName",
          "type": "string"
        },
        {
          "internalType": "address",
          "name": "_address",
          "type": "address"
        }
      ],
      "name": "setTokenAddress",
      "outputs": [],
      "stateMutability": "nonpayable",
      "type": "function"
    },
    {
      "inputs": [],
      "name": "signer",
      "outputs": [
        {
          "internalType": "address",
          "name": "",
          "type": "address"
        }
      ],
      "stateMutability": "view",
      "type": "function"
    }
  ],
  "transactionHash": "0x8ffe2c980b87b88aed8298025a873c97bce78337ea556c7e2c5852b09a1a0087",
  "args": [
    "0x668417616f1502D13EA1f9528F83072A133e8E01",
    "0x7295d96ED2C37173F0C3B4dB28447FE38202F27a"
  ],
  "numDeployments": 2,
  "solcInputHash": "ce90132d8e899f121043e7f2f634a0ac",
  "bytecode": "0x60a06040523480156200001157600080fd5b506040516200201a3803806200201a833981810160405281019062000037919062000121565b81818073ffffffffffffffffffffffffffffffffffffffff1660808173ffffffffffffffffffffffffffffffffffffffff168152505050806000806101000a81548173ffffffffffffffffffffffffffffffffffffffff021916908373ffffffffffffffffffffffffffffffffffffffff16021790555050505062000168565b600080fd5b600073ffffffffffffffffffffffffffffffffffffffff82169050919050565b6000620000e982620000bc565b9050919050565b620000fb81620000dc565b81146200010757600080fd5b50565b6000815190506200011b81620000f0565b92915050565b600080604083850312156200013b576200013a620000b7565b5b60006200014b858286016200010a565b92505060206200015e858286016200010a565b9150509250929050565b608051611e9662000184600039600061027e0152611e966000f3fe608060405234801561001057600080fd5b506004361061007d5760003560e01c80638da5cb5b1161005b5780638da5cb5b146100d8578063c1f0808a146100f6578063edd321eb14610126578063edee9e0c146101425761007d565b806317456e5614610082578063238ac9331461009e5780636c19e783146100bc575b600080fd5b61009c60048036038101906100979190610ef3565b61015e565b005b6100a661020a565b6040516100b39190610f62565b60405180910390f35b6100d660048036038101906100d19190610f7d565b61022e565b005b6100e061027a565b6040516100ed9190610f62565b60405180910390f35b610110600480360381019061010b9190610fe0565b6102a2565b60405161011d9190611028565b60405180910390f35b610140600480360381019061013b91906110bd565b6102c2565b005b61015c6004803603810190610157919061116f565b61047f565b005b610167336105f0565b80600260006101b986868080601f016020809104026020016040519081016040528093929190818152602001838380828437600081840152601f19601f8201169050808301925050505050505061065f565b815260200190815260200160002060006101000a81548173ffffffffffffffffffffffffffffffffffffffff021916908373ffffffffffffffffffffffffffffffffffffffff160217905550505050565b60008054906101000a900473ffffffffffffffffffffffffffffffffffffffff1681565b610237336105f0565b806000806101000a81548173ffffffffffffffffffffffffffffffffffffffff021916908373ffffffffffffffffffffffffffffffffffffffff16021790555050565b60007f0000000000000000000000000000000000000000000000000000000000000000905090565b60016020528060005260406000206000915054906101000a900460ff1681565b60148380602001906102d49190611225565b905014610329578280602001906102eb9190611225565b90506040517f6d1eca280000000000000000000000000000000000000000000000000000000081526004016103209190611297565b60405180910390fd5b610380836103369061158a565b83838080601f016020809104026020016040519081016040528093929190818152602001838380828437600081840152601f19601f82011690508083019250505050505050610670565b60008380602001906103929190611225565b8080601f016020809104026020016040519081016040528093929190818152602001838380828437600081840152601f19601f8201169050808301925050505050505090506000601482015190506104418580604001906103f3919061159d565b8080601f016020809104026020016040519081016040528093929190818152602001838380828437600081840152601f19601f8201169050808301925050505050505082876060013561069e565b7f6c88d7b573e9b8f02176fc86464358e9cb1300f57f18c34bb7aeac0b7e93fba885604051610470919061187c565b60405180910390a15050505050565b6104ce86868080601f016020809104026020016040519081016040528093929190818152602001838380828437600081840152601f19601f8201169050808301925050505050505033836107ea565b7f65bc11ef1c20d67465d1537f773c0a4fb23dadd40f2ea1d994ff372ef30534c96040518060e001604052803373ffffffffffffffffffffffffffffffffffffffff16815260200185858080601f016020809104026020016040519081016040528093929190818152602001838380828437600081840152601f19601f82011690508083019250505050505050815260200188888080601f016020809104026020016040519081016040528093929190818152602001838380828437600081840152601f19601f8201169050808301925050505050505081526020018381526020014681526020018681526020016105c66003610936565b8152506040516105d691906119f3565b60405180910390a16105e86003610944565b505050505050565b6105f861027a565b73ffffffffffffffffffffffffffffffffffffffff168173ffffffffffffffffffffffffffffffffffffffff161461065c576040517f30cd747100000000000000000000000000000000000000000000000000000000815260040160405180910390fd5b50565b600081805190602001209050919050565b6106798261095a565b60006106848361099a565b905061068f816109f2565b6106998183610a83565b505050565b60006106a98461065f565b9050600073ffffffffffffffffffffffffffffffffffffffff166002600083815260200190815260200160002060009054906101000a900473ffffffffffffffffffffffffffffffffffffffff1673ffffffffffffffffffffffffffffffffffffffff1603610744576040517fc20350c500000000000000000000000000000000000000000000000000000000815260040160405180910390fd5b6002600082815260200190815260200160002060009054906101000a900473ffffffffffffffffffffffffffffffffffffffff1673ffffffffffffffffffffffffffffffffffffffff166340c10f1984846040518363ffffffff1660e01b81526004016107b2929190611a15565b600060405180830381600087803b1580156107cc57600080fd5b505af11580156107e0573d6000803e3d6000fd5b5050505050505050565b60006107f58461065f565b9050600073ffffffffffffffffffffffffffffffffffffffff166002600083815260200190815260200160002060009054906101000a900473ffffffffffffffffffffffffffffffffffffffff1673ffffffffffffffffffffffffffffffffffffffff1603610890576040517fc20350c500000000000000000000000000000000000000000000000000000000815260040160405180910390fd5b6002600082815260200190815260200160002060009054906101000a900473ffffffffffffffffffffffffffffffffffffffff1673ffffffffffffffffffffffffffffffffffffffff16639dc29fac84846040518363ffffffff1660e01b81526004016108fe929190611a15565b600060405180830381600087803b15801561091857600080fd5b505af115801561092c573d6000803e3d6000fd5b5050505050505050565b600081600001549050919050565b6001816000016000828254019250508190555050565b468160a0015114610997576040517f10dfc03300000000000000000000000000000000000000000000000000000000815260040160405180910390fd5b50565b6000816000015182602001518360400151846060015185608001518660a001518760c001516040516020016109d59796959493929190611b1f565b604051602081830303815290604052805190602001209050919050565b6001600082815260200190815260200160002060009054906101000a900460ff1615610a5557806040517f1a20d3e6000000000000000000000000000000000000000000000000000000008152600401610a4c9190611ba7565b60405180910390fd5b600180600083815260200190815260200160002060006101000a81548160ff02191690831515021790555050565b6000610aa082610a9285610b2c565b610b5c90919063ffffffff16565b905060008054906101000a900473ffffffffffffffffffffffffffffffffffffffff1673ffffffffffffffffffffffffffffffffffffffff168173ffffffffffffffffffffffffffffffffffffffff1614610b27576040517fa7932e6a00000000000000000000000000000000000000000000000000000000815260040160405180910390fd5b505050565b600081604051602001610b3f9190611c2f565b604051602081830303815290604052805190602001209050919050565b6000806000610b6b8585610b83565b91509150610b7881610bd4565b819250505092915050565b6000806041835103610bc45760008060006020860151925060408601519150606086015160001a9050610bb887828585610d3a565b94509450505050610bcd565b60006002915091505b9250929050565b60006004811115610be857610be7611c55565b5b816004811115610bfb57610bfa611c55565b5b0315610d375760016004811115610c1557610c14611c55565b5b816004811115610c2857610c27611c55565b5b03610c68576040517f08c379a0000000000000000000000000000000000000000000000000000000008152600401610c5f90611ce1565b60405180910390fd5b60026004811115610c7c57610c7b611c55565b5b816004811115610c8f57610c8e611c55565b5b03610ccf576040517f08c379a0000000000000000000000000000000000000000000000000000000008152600401610cc690611d4d565b60405180910390fd5b60036004811115610ce357610ce2611c55565b5b816004811115610cf657610cf5611c55565b5b03610d36576040517f08c379a0000000000000000000000000000000000000000000000000000000008152600401610d2d90611ddf565b60405180910390fd5b5b50565b6000807f7fffffffffffffffffffffffffffffff5d576e7357a4501ddfe92f46681b20a08360001c1115610d75576000600391509150610e13565b600060018787878760405160008152602001604052604051610d9a9493929190611e1b565b6020604051602081039080840390855afa158015610dbc573d6000803e3d6000fd5b505050602060405103519050600073ffffffffffffffffffffffffffffffffffffffff168173ffffffffffffffffffffffffffffffffffffffff1603610e0a57600060019250925050610e13565b80600092509250505b94509492505050565b6000604051905090565b600080fd5b600080fd5b600080fd5b600080fd5b600080fd5b60008083601f840112610e5557610e54610e30565b5b8235905067ffffffffffffffff811115610e7257610e71610e35565b5b602083019150836001820283011115610e8e57610e8d610e3a565b5b9250929050565b600073ffffffffffffffffffffffffffffffffffffffff82169050919050565b6000610ec082610e95565b9050919050565b610ed081610eb5565b8114610edb57600080fd5b50565b600081359050610eed81610ec7565b92915050565b600080600060408486031215610f0c57610f0b610e26565b5b600084013567ffffffffffffffff811115610f2a57610f29610e2b565b5b610f3686828701610e3f565b93509350506020610f4986828701610ede565b9150509250925092565b610f5c81610eb5565b82525050565b6000602082019050610f776000830184610f53565b92915050565b600060208284031215610f9357610f92610e26565b5b6000610fa184828501610ede565b91505092915050565b6000819050919050565b610fbd81610faa565b8114610fc857600080fd5b50565b600081359050610fda81610fb4565b92915050565b600060208284031215610ff657610ff5610e26565b5b600061100484828501610fcb565b91505092915050565b60008115159050919050565b6110228161100d565b82525050565b600060208201905061103d6000830184611019565b92915050565b600080fd5b600060e0828403121561105e5761105d611043565b5b81905092915050565b60008083601f84011261107d5761107c610e30565b5b8235905067ffffffffffffffff81111561109a57611099610e35565b5b6020830191508360018202830111156110b6576110b5610e3a565b5b9250929050565b6000806000604084860312156110d6576110d5610e26565b5b600084013567ffffffffffffffff8111156110f4576110f3610e2b565b5b61110086828701611048565b935050602084013567ffffffffffffffff81111561112157611120610e2b565b5b61112d86828701611067565b92509250509250925092565b6000819050919050565b61114c81611139565b811461115757600080fd5b50565b60008135905061116981611143565b92915050565b6000806000806000806080878903121561118c5761118b610e26565b5b600087013567ffffffffffffffff8111156111aa576111a9610e2b565b5b6111b689828a01610e3f565b965096505060206111c989828a0161115a565b945050604087013567ffffffffffffffff8111156111ea576111e9610e2b565b5b6111f689828a01611067565b9350935050606061120989828a0161115a565b9150509295509295509295565b600080fd5b600080fd5b600080fd5b6000808335600160200384360303811261124257611241611216565b5b80840192508235915067ffffffffffffffff8211156112645761126361121b565b5b6020830192506001820236038313156112805761127f611220565b5b509250929050565b61129181611139565b82525050565b60006020820190506112ac6000830184611288565b92915050565b600080fd5b6000601f19601f8301169050919050565b7f4e487b7100000000000000000000000000000000000000000000000000000000600052604160045260246000fd5b611300826112b7565b810181811067ffffffffffffffff8211171561131f5761131e6112c8565b5b80604052505050565b6000611332610e1c565b905061133e82826112f7565b919050565b600080fd5b600080fd5b600067ffffffffffffffff821115611368576113676112c8565b5b611371826112b7565b9050602081019050919050565b82818337600083830152505050565b60006113a061139b8461134d565b611328565b9050828152602081018484840111156113bc576113bb611348565b5b6113c784828561137e565b509392505050565b600082601f8301126113e4576113e3610e30565b5b81356113f484826020860161138d565b91505092915050565b600067ffffffffffffffff821115611418576114176112c8565b5b611421826112b7565b9050602081019050919050565b600061144161143c846113fd565b611328565b90508281526020810184848401111561145d5761145c611348565b5b61146884828561137e565b509392505050565b600082601f83011261148557611484610e30565b5b813561149584826020860161142e565b91505092915050565b600060e082840312156114b4576114b36112b2565b5b6114be60e0611328565b905060006114ce84828501610ede565b600083015250602082013567ffffffffffffffff8111156114f2576114f1611343565b5b6114fe848285016113cf565b602083015250604082013567ffffffffffffffff81111561152257611521611343565b5b61152e84828501611470565b60408301525060606115428482850161115a565b60608301525060806115568482850161115a565b60808301525060a061156a8482850161115a565b60a08301525060c061157e8482850161115a565b60c08301525092915050565b6000611596368361149e565b9050919050565b600080833560016020038436030381126115ba576115b9611216565b5b80840192508235915067ffffffffffffffff8211156115dc576115db61121b565b5b6020830192506001820236038313156115f8576115f7611220565b5b509250929050565b600061160f6020840184610ede565b905092915050565b61162081610eb5565b82525050565b600080fd5b600080fd5b600080fd5b6000808335600160200384360303811261165257611651611630565b5b83810192508235915060208301925067ffffffffffffffff82111561167a57611679611626565b5b6001820236038313156116905761168f61162b565b5b509250929050565b600082825260208201905092915050565b60006116b58385611698565b93506116c283858461137e565b6116cb836112b7565b840190509392505050565b600080833560016020038436030381126116f3576116f2611630565b5b83810192508235915060208301925067ffffffffffffffff82111561171b5761171a611626565b5b6001820236038313156117315761173061162b565b5b509250929050565b600082825260208201905092915050565b60006117568385611739565b935061176383858461137e565b61176c836112b7565b840190509392505050565b6000611786602084018461115a565b905092915050565b61179781611139565b82525050565b600060e083016117b06000840184611600565b6117bd6000860182611617565b506117cb6020840184611635565b85830360208701526117de8382846116a9565b925050506117ef60408401846116d6565b858303604087015261180283828461174a565b925050506118136060840184611777565b611820606086018261178e565b5061182e6080840184611777565b61183b608086018261178e565b5061184960a0840184611777565b61185660a086018261178e565b5061186460c0840184611777565b61187160c086018261178e565b508091505092915050565b60006020820190508181036000830152611896818461179d565b905092915050565b600081519050919050565b60005b838110156118c75780820151818401526020810190506118ac565b60008484015250505050565b60006118de8261189e565b6118e88185611698565b93506118f88185602086016118a9565b611901816112b7565b840191505092915050565b600081519050919050565b60006119228261190c565b61192c8185611739565b935061193c8185602086016118a9565b611945816112b7565b840191505092915050565b600060e0830160008301516119686000860182611617565b506020830151848203602086015261198082826118d3565b9150506040830151848203604086015261199a8282611917565b91505060608301516119af606086018261178e565b5060808301516119c2608086018261178e565b5060a08301516119d560a086018261178e565b5060c08301516119e860c086018261178e565b508091505092915050565b60006020820190508181036000830152611a0d8184611950565b905092915050565b6000604082019050611a2a6000830185610f53565b611a376020830184611288565b9392505050565b60008160601b9050919050565b6000611a5682611a3e565b9050919050565b6000611a6882611a4b565b9050919050565b611a80611a7b82610eb5565b611a5d565b82525050565b600081905092915050565b6000611a9c8261189e565b611aa68185611a86565b9350611ab68185602086016118a9565b80840191505092915050565b600081905092915050565b6000611ad88261190c565b611ae28185611ac2565b9350611af28185602086016118a9565b80840191505092915050565b6000819050919050565b611b19611b1482611139565b611afe565b82525050565b6000611b2b828a611a6f565b601482019150611b3b8289611a91565b9150611b478288611acd565b9150611b538287611b08565b602082019150611b638286611b08565b602082019150611b738285611b08565b602082019150611b838284611b08565b60208201915081905098975050505050505050565b611ba181610faa565b82525050565b6000602082019050611bbc6000830184611b98565b92915050565b7f19457468657265756d205369676e6564204d6573736167653a0a333200000000600082015250565b6000611bf8601c83611ac2565b9150611c0382611bc2565b601c82019050919050565b6000819050919050565b611c29611c2482610faa565b611c0e565b82525050565b6000611c3a82611beb565b9150611c468284611c18565b60208201915081905092915050565b7f4e487b7100000000000000000000000000000000000000000000000000000000600052602160045260246000fd5b600082825260208201905092915050565b7f45434453413a20696e76616c6964207369676e61747572650000000000000000600082015250565b6000611ccb601883611c84565b9150611cd682611c95565b602082019050919050565b60006020820190508181036000830152611cfa81611cbe565b9050919050565b7f45434453413a20696e76616c6964207369676e6174757265206c656e67746800600082015250565b6000611d37601f83611c84565b9150611d4282611d01565b602082019050919050565b60006020820190508181036000830152611d6681611d2a565b9050919050565b7f45434453413a20696e76616c6964207369676e6174757265202773272076616c60008201527f7565000000000000000000000000000000000000000000000000000000000000602082015250565b6000611dc9602283611c84565b9150611dd482611d6d565b604082019050919050565b60006020820190508181036000830152611df881611dbc565b9050919050565b600060ff82169050919050565b611e1581611dff565b82525050565b6000608082019050611e306000830187611b98565b611e3d6020830186611e0c565b611e4a6040830185611b98565b611e576060830184611b98565b9594505050505056fea2646970667358221220135e3a61bd4c263e713caf38f58415a0863213b7d1dd2fa27f6a2713d351d40464736f6c63430008100033",
  "devdoc": {
    "kind": "dev",
    "methods": {},
    "version": 1
  },
  "userdoc": {
    "kind": "user",
    "methods": {},
    "version": 1
  },
  "storageLayout": {
    "storage": [
      {
        "astId": 1953,
        "contract": "contracts/Bridge.sol:Bridge",
        "label": "signer",
        "offset": 0,
        "slot": "0",
        "type": "t_address"
      },
      {
        "astId": 1827,
        "contract": "contracts/Bridge.sol:Bridge",
        "label": "processed",
        "offset": 0,
        "slot": "1",
        "type": "t_mapping(t_bytes32,t_bool)"
      },
      {
        "astId": 1679,
        "contract": "contracts/Bridge.sol:Bridge",
        "label": "tokenNameHash2Address",
        "offset": 0,
        "slot": "2",
        "type": "t_mapping(t_bytes32,t_address)"
      },
      {
        "astId": 1515,
        "contract": "contracts/Bridge.sol:Bridge",
        "label": "nonce",
        "offset": 0,
        "slot": "3",
        "type": "t_struct(Counter)5_storage"
      }
    ],
    "types": {
      "t_address": {
        "encoding": "inplace",
        "label": "address",
        "numberOfBytes": "20"
      },
      "t_bool": {
        "encoding": "inplace",
        "label": "bool",
        "numberOfBytes": "1"
      },
      "t_bytes32": {
        "encoding": "inplace",
        "label": "bytes32",
        "numberOfBytes": "32"
      },
      "t_mapping(t_bytes32,t_address)": {
        "encoding": "mapping",
        "key": "t_bytes32",
        "label": "mapping(bytes32 => address)",
        "numberOfBytes": "32",
        "value": "t_address"
      },
      "t_mapping(t_bytes32,t_bool)": {
        "encoding": "mapping",
        "key": "t_bytes32",
        "label": "mapping(bytes32 => bool)",
        "numberOfBytes": "32",
        "value": "t_bool"
      },
      "t_struct(Counter)5_storage": {
        "encoding": "inplace",
        "label": "struct Counters.Counter",
        "members": [
          {
            "astId": 4,
            "contract": "contracts/Bridge.sol:Bridge",
            "label": "_value",
            "offset": 0,
            "slot": "0",
            "type": "t_uint256"
          }
        ],
        "numberOfBytes": "32"
      },
      "t_uint256": {
        "encoding": "inplace",
        "label": "uint256",
        "numberOfBytes": "32"
      }
    }
  }
}